:020000020000FC
:0200000014C02A
:10002A000FE50DBF12E01EBF00E00ABB0FEF04BBD5
:10003A0001BB90E080EE70ED60EB50E700E055BB4D
:10004A0049B312E037D065BB12E034D075BB12E079
:10005A0031D085BB12E02ED00395041781F7539552
:10006A00843ECCF07A3DBCF0653BACF05A3701F5E2
:10007A0000C06395823E94F0733D84F0663BB9F408
:10008A0000C07395823E6CF0743D81F400C0839584
:10009A00833E59F4CFCF5A3759F4EBCF663B39F444
:1000AA00F0CF7A3D19F4F3CF80EE70ED60EB50E7B4
:1000BA0000E0C5CF30E03FBD24E02F9328BF2CEFEE
:1000CA002DBD27E12CBD21E02EBD28B72470243098
:1000DA00E1F722272EBD2F913395311774F3089536
:00000001FF
