:020000020000FC
:0200000014C02A
:10002A000FE50DBF12E01EBF00E00ABB0FEF04BBD5
:10003A0001BB01E805BB10E595D000E805BB18E057
:10004A0091D001E805BB18E08DD000E805BB18E0A7
:10005A0089D001E805BB18E085D000E805BB18E0A7
:10006A0081D001E805BB18E07DD000E805BB18E0A7
:10007A0079D001E805BB18E075D000E805BB18E0A7
:10008A0071D001E805BB18E06DD002E805BB10E5A8
:10009A0069D000E805BB18E065D002E805BB18E0A6
:1000AA0061D000E805BB18E05DD002E805BB18E0A6
:1000BA0059D000E805BB18E055D002E805BB18E0A6
:1000CA0051D000E805BB18E04DD002E805BB18E0A6
:1000DA0049D000E805BB18E045D002E805BB18E0A6
:1000EA0041D004E805BB1EE13DD008E105BB10E59F
:1000FA0039D008E005BB18E035D008E105BB18E0A7
:10010A0031D008E005BB18E02DD008E105BB18E0A6
:10011A0029D008E005BB18E025D008E105BB18E0A6
:10012A0021D008E205BB10E51DD008E005BB18E0A8
:10013A0019D008E205BB18E015D008E005BB18E0A5
:10014A0011D008E205BB18E00DD008E005BB18E0A5
:10015A0009D008E205BB18E005D008E405BB1EE19A
:10016A0001D067CF30E03FBD24E02F9328BF2CE3B6
:10017A002DBD2FEA2CBD21E02EBD28B724702430D6
:10018A00E1F722272EBD2F913395311774F3089585
:00000001FF
