:020000020000FC
:0200000014C02A
:10002A000FE50DBF12E01EBF00E00ABB0FEF04BBD5
:10003A0001BB90E082E073E165E359E490E6A0E752
:10004A0000E055BB49B312E045D065BB12E042D08F
:10005A0075BB12E03FD085BB12E03CD0A5BB12E0D5
:10006A0039D095BB12E036D00395041751F7A39502
:10007A00AA3771F59395963651F553958230CCF09F
:10008A007331BCF06633ACF05A3401F500C06395A5
:10009A00823094F0753184F06633B9F400C07395F8
:1000AA0082306CF0743181F400C08395823059F447
:1000BA0009C05A3459F4EBCF663339F4F0CF7A31A8
:1000CA0019F4F3CF80E070E160E350E490E6A0E732
:1000DA0000E0B7CF30E03FBD24E02F9328BF2CEFDC
:1000EA002DBD27E12CBD21E02EBD28B72470243078
:1000FA00E1F722272EBD2F913395311774F3089516
:00000001FF
